{
  "contractName": "Token",
  "abi": [
    {
      "inputs": [],
      "stateMutability": "nonpayable",
      "type": "constructor"
    },
    {
      "anonymous": false,
      "inputs": [
        {
          "indexed": true,
          "internalType": "address",
          "name": "_owner",
          "type": "address"
        },
        {
          "indexed": true,
          "internalType": "address",
          "name": "_approved",
          "type": "address"
        },
        {
          "indexed": true,
          "internalType": "uint256",
          "name": "_tokenId",
          "type": "uint256"
        }
      ],
      "name": "Approval",
      "type": "event"
    },
    {
      "anonymous": false,
      "inputs": [
        {
          "indexed": true,
          "internalType": "address",
          "name": "from",
          "type": "address"
        },
        {
          "indexed": true,
          "internalType": "address",
          "name": "to",
          "type": "address"
        },
        {
          "indexed": true,
          "internalType": "uint256",
          "name": "tokenId",
          "type": "uint256"
        }
      ],
      "name": "Transfer",
      "type": "event"
    },
    {
      "inputs": [
        {
          "internalType": "uint256",
          "name": "",
          "type": "uint256"
        }
      ],
      "name": "TokenNFTS",
      "outputs": [
        {
          "internalType": "string",
          "name": "",
          "type": "string"
        }
      ],
      "stateMutability": "view",
      "type": "function",
      "constant": true
    },
    {
      "inputs": [
        {
          "internalType": "address",
          "name": "_to",
          "type": "address"
        },
        {
          "internalType": "uint256",
          "name": "tokenId",
          "type": "uint256"
        }
      ],
      "name": "approve",
      "outputs": [],
      "stateMutability": "nonpayable",
      "type": "function"
    },
    {
      "inputs": [
        {
          "internalType": "address",
          "name": "_owner",
          "type": "address"
        }
      ],
      "name": "balanceOf",
      "outputs": [
        {
          "internalType": "uint256",
          "name": "",
          "type": "uint256"
        }
      ],
      "stateMutability": "view",
      "type": "function",
      "constant": true
    },
    {
      "inputs": [],
      "name": "name",
      "outputs": [
        {
          "internalType": "string",
          "name": "",
          "type": "string"
        }
      ],
      "stateMutability": "view",
      "type": "function",
      "constant": true
    },
    {
      "inputs": [
        {
          "internalType": "uint256",
          "name": "_tokenId",
          "type": "uint256"
        }
      ],
      "name": "ownerOf",
      "outputs": [
        {
          "internalType": "address",
          "name": "",
          "type": "address"
        }
      ],
      "stateMutability": "view",
      "type": "function",
      "constant": true
    },
    {
      "inputs": [
        {
          "internalType": "bytes4",
          "name": "interfaceID",
          "type": "bytes4"
        }
      ],
      "name": "supportsInterface",
      "outputs": [
        {
          "internalType": "bool",
          "name": "",
          "type": "bool"
        }
      ],
      "stateMutability": "view",
      "type": "function",
      "constant": true
    },
    {
      "inputs": [],
      "name": "symbol",
      "outputs": [
        {
          "internalType": "string",
          "name": "",
          "type": "string"
        }
      ],
      "stateMutability": "view",
      "type": "function",
      "constant": true
    },
    {
      "inputs": [
        {
          "internalType": "uint256",
          "name": "index",
          "type": "uint256"
        }
      ],
      "name": "tokenByIndex",
      "outputs": [
        {
          "internalType": "uint256",
          "name": "",
          "type": "uint256"
        }
      ],
      "stateMutability": "view",
      "type": "function",
      "constant": true
    },
    {
      "inputs": [
        {
          "internalType": "address",
          "name": "owner",
          "type": "address"
        },
        {
          "internalType": "uint256",
          "name": "index",
          "type": "uint256"
        }
      ],
      "name": "tokenOfOwnerByIndex",
      "outputs": [
        {
          "internalType": "uint256",
          "name": "",
          "type": "uint256"
        }
      ],
      "stateMutability": "view",
      "type": "function",
      "constant": true
    },
    {
      "inputs": [],
      "name": "totalSupply",
      "outputs": [
        {
          "internalType": "uint256",
          "name": "",
          "type": "uint256"
        }
      ],
      "stateMutability": "view",
      "type": "function",
      "constant": true
    },
    {
      "inputs": [
        {
          "internalType": "address",
          "name": "_from",
          "type": "address"
        },
        {
          "internalType": "address",
          "name": "_to",
          "type": "address"
        },
        {
          "internalType": "uint256",
          "name": "_tokenId",
          "type": "uint256"
        }
      ],
      "name": "transferFrom",
      "outputs": [],
      "stateMutability": "nonpayable",
      "type": "function"
    },
    {
      "inputs": [
        {
          "internalType": "string",
          "name": "_Token",
          "type": "string"
        }
      ],
      "name": "mint",
      "outputs": [],
      "stateMutability": "nonpayable",
      "type": "function"
    }
  ],
  "bytecode": "0x60806040523480156200001157600080fd5b506040518060400160405280600881526020017f50696c69636f696e0000000000000000000000000000000000000000000000008152506040518060400160405280600281526020017f4b5400000000000000000000000000000000000000000000000000000000000081525081818160009081620000919190620004a6565b508060019081620000a39190620004a6565b505050620000d77f01ffc9a7a5cef8baa21ed3c5c0d7e23accb804b619e9333b597f47a0d84076e26200015460201b60201c565b6200014c7f22c82707ba960a14c7592ffb6b8cfaa073fed0048a84cc7fa41f6b5bd8e7f2e47f3a6eb71757dfc6e784c1459d26270140c2c147d95ca985c80026fc5301c3eca17f8a7e378434598edc36d108689a030cbc9d7d465de4f74c71bae1028eed6a881b18186200015460201b60201c565b505062000610565b63ffffffff60e01b817bffffffffffffffffffffffffffffffffffffffffffffffffffffffff191603620001bf576040517f08c379a0000000000000000000000000000000000000000000000000000000008152600401620001b690620005ee565b60405180910390fd5b600160026000837bffffffffffffffffffffffffffffffffffffffffffffffffffffffff19167bffffffffffffffffffffffffffffffffffffffffffffffffffffffff1916815260200190815260200160002060006101000a81548160ff02191690831515021790555050565b600081519050919050565b7f4e487b7100000000000000000000000000000000000000000000000000000000600052604160045260246000fd5b7f4e487b7100000000000000000000000000000000000000000000000000000000600052602260045260246000fd5b60006002820490506001821680620002ae57607f821691505b602082108103620002c457620002c362000266565b5b50919050565b60008190508160005260206000209050919050565b60006020601f8301049050919050565b600082821b905092915050565b6000600883026200032e7fffffffffffffffffffffffffffffffffffffffffffffffffffffffffffffffff82620002ef565b6200033a8683620002ef565b95508019841693508086168417925050509392505050565b6000819050919050565b6000819050919050565b600062000387620003816200037b8462000352565b6200035c565b62000352565b9050919050565b6000819050919050565b620003a38362000366565b620003bb620003b2826200038e565b848454620002fc565b825550505050565b600090565b620003d2620003c3565b620003df81848462000398565b505050565b5b818110156200040757620003fb600082620003c8565b600181019050620003e5565b5050565b601f82111562000456576200042081620002ca565b6200042b84620002df565b810160208510156200043b578190505b620004536200044a85620002df565b830182620003e4565b50505b505050565b600082821c905092915050565b60006200047b600019846008026200045b565b1980831691505092915050565b600062000496838362000468565b9150826002028217905092915050565b620004b1826200022c565b67ffffffffffffffff811115620004cd57620004cc62000237565b5b620004d9825462000295565b620004e68282856200040b565b600060209050601f8311600181146200051e576000841562000509578287015190505b62000515858262000488565b86555062000585565b601f1984166200052e86620002ca565b60005b82811015620005585784890151825560018201915060208501945060208101905062000531565b8683101562000578578489015162000574601f89168262000468565b8355505b6001600288020188555050505b505050505050565b600082825260208201905092915050565b7f496e76616c696420696e74657266616365207265717565737400000000000000600082015250565b6000620005d66019836200058d565b9150620005e3826200059e565b602082019050919050565b600060208201905081810360008301526200060981620005c7565b9050919050565b611f4d80620006206000396000f3fe608060405234801561001057600080fd5b50600436106100b45760003560e01c80634f6ccce7116100715780634f6ccce71461018d5780635e5f1613146101bd5780636352211e146101ed57806370a082311461021d57806395d89b411461024d578063d85d3d271461026b576100b4565b806301ffc9a7146100b957806306fdde03146100e9578063095ea7b31461010757806318160ddd1461012357806323b872dd146101415780632f745c591461015d575b600080fd5b6100d360048036038101906100ce9190611136565b610287565b6040516100e0919061117e565b60405180910390f35b6100f16102ef565b6040516100fe9190611229565b60405180910390f35b610121600480360381019061011c91906112df565b610381565b005b61012b61051c565b604051610138919061132e565b60405180910390f35b61015b60048036038101906101569190611349565b610529565b005b610177600480360381019061017291906112df565b61054c565b604051610184919061132e565b60405180910390f35b6101a760048036038101906101a2919061139c565b6105fc565b6040516101b4919061132e565b60405180910390f35b6101d760048036038101906101d2919061139c565b61066d565b6040516101e49190611229565b60405180910390f35b6102076004803603810190610202919061139c565b610719565b60405161021491906113d8565b60405180910390f35b610237600480360381019061023291906113f3565b6107ca565b604051610244919061132e565b60405180910390f35b610255610888565b6040516102629190611229565b60405180910390f35b61028560048036038101906102809190611555565b61091a565b005b600060026000837bffffffffffffffffffffffffffffffffffffffffffffffffffffffff19167bffffffffffffffffffffffffffffffffffffffffffffffffffffffff1916815260200190815260200160002060009054906101000a900460ff169050919050565b6060600080546102fe906115cd565b80601f016020809104026020016040519081016040528092919081815260200182805461032a906115cd565b80156103775780601f1061034c57610100808354040283529160200191610377565b820191906000526020600020905b81548152906001019060200180831161035a57829003601f168201915b5050505050905090565b600061038c82610719565b90508073ffffffffffffffffffffffffffffffffffffffff168373ffffffffffffffffffffffffffffffffffffffff16036103fc576040517f08c379a00000000000000000000000000000000000000000000000000000000081526004016103f390611670565b60405180910390fd5b8073ffffffffffffffffffffffffffffffffffffffff163373ffffffffffffffffffffffffffffffffffffffff161461046a576040517f08c379a0000000000000000000000000000000000000000000000000000000008152600401610461906116dc565b60405180910390fd5b826005600084815260200190815260200160002060006101000a81548173ffffffffffffffffffffffffffffffffffffffff021916908373ffffffffffffffffffffffffffffffffffffffff160217905550818373ffffffffffffffffffffffffffffffffffffffff168273ffffffffffffffffffffffffffffffffffffffff167f8c5be1e5ebec7d5bd14f71427d1e84f3dd0314c0f7b2291e5b200ac8c7c3b92560405160405180910390a4505050565b6000600680549050905090565b6105333382610a16565b61053c57600080fd5b610547838383610aa5565b505050565b6000610557836107ca565b8210610598576040517f08c379a000000000000000000000000000000000000000000000000000000000815260040161058f90611748565b60405180910390fd5b600860008473ffffffffffffffffffffffffffffffffffffffff1673ffffffffffffffffffffffffffffffffffffffff16815260200190815260200160002082815481106105e9576105e8611768565b5b9060005260206000200154905092915050565b600061060661051c565b8210610647576040517f08c379a000000000000000000000000000000000000000000000000000000000815260040161063e906117e3565b60405180910390fd5b6006828154811061065b5761065a611768565b5b90600052602060002001549050919050565b600a818154811061067d57600080fd5b906000526020600020016000915090508054610698906115cd565b80601f01602080910402602001604051908101604052809291908181526020018280546106c4906115cd565b80156107115780601f106106e657610100808354040283529160200191610711565b820191906000526020600020905b8154815290600101906020018083116106f457829003601f168201915b505050505081565b6000806003600084815260200190815260200160002060009054906101000a900473ffffffffffffffffffffffffffffffffffffffff169050600073ffffffffffffffffffffffffffffffffffffffff168173ffffffffffffffffffffffffffffffffffffffff16036107c1576040517f08c379a00000000000000000000000000000000000000000000000000000000081526004016107b89061184f565b60405180910390fd5b80915050919050565b60008073ffffffffffffffffffffffffffffffffffffffff168273ffffffffffffffffffffffffffffffffffffffff160361083a576040517f08c379a00000000000000000000000000000000000000000000000000000000081526004016108319061184f565b60405180910390fd5b610881600460008473ffffffffffffffffffffffffffffffffffffffff1673ffffffffffffffffffffffffffffffffffffffff168152602001908152602001600020610cca565b9050919050565b606060018054610897906115cd565b80601f01602080910402602001604051908101604052809291908181526020018280546108c3906115cd565b80156109105780601f106108e557610100808354040283529160200191610910565b820191906000526020600020905b8154815290600101906020018083116108f357829003601f168201915b5050505050905090565b600b8160405161092a91906118ab565b908152602001604051809103902060009054906101000a900460ff1615610986576040517f08c379a000000000000000000000000000000000000000000000000000000000815260040161097d9061190e565b60405180910390fd5b600a819080600181540180825580915050600190039060005260206000200160009091909190915090816109ba9190611ada565b5060006001600a805490506109cf9190611bdb565b90506109db3382610cd8565b6001600b836040516109ed91906118ab565b908152602001604051809103902060006101000a81548160ff0219169083151502179055505050565b6000610a2182610cf9565b610a60576040517f08c379a0000000000000000000000000000000000000000000000000000000008152600401610a5790611c5b565b60405180910390fd5b6000610a6b83610719565b90508073ffffffffffffffffffffffffffffffffffffffff168473ffffffffffffffffffffffffffffffffffffffff161491505092915050565b600073ffffffffffffffffffffffffffffffffffffffff168273ffffffffffffffffffffffffffffffffffffffff1603610b14576040517f08c379a0000000000000000000000000000000000000000000000000000000008152600401610b0b90611ced565b60405180910390fd5b8273ffffffffffffffffffffffffffffffffffffffff16610b3482610719565b73ffffffffffffffffffffffffffffffffffffffff1614610b8a576040517f08c379a0000000000000000000000000000000000000000000000000000000008152600401610b8190611d7f565b60405180910390fd5b610bd1600460008573ffffffffffffffffffffffffffffffffffffffff1673ffffffffffffffffffffffffffffffffffffffff168152602001908152602001600020610d6b565b610c18600460008473ffffffffffffffffffffffffffffffffffffffff1673ffffffffffffffffffffffffffffffffffffffff168152602001908152602001600020610d8e565b816003600083815260200190815260200160002060006101000a81548173ffffffffffffffffffffffffffffffffffffffff021916908373ffffffffffffffffffffffffffffffffffffffff160217905550808273ffffffffffffffffffffffffffffffffffffffff168473ffffffffffffffffffffffffffffffffffffffff167fddf252ad1be2c89b69c2b068fc378daa952ba7f163c4a11628f55a4df523b3ef60405160405180910390a4505050565b600081600001549050919050565b610ce28282610dad565b610cec8282610f5e565b610cf581611022565b5050565b6000806003600084815260200190815260200160002060009054906101000a900473ffffffffffffffffffffffffffffffffffffffff169050600073ffffffffffffffffffffffffffffffffffffffff168173ffffffffffffffffffffffffffffffffffffffff161415915050919050565b610d836001826000015461106b90919063ffffffff16565b816000018190555050565b6001816000016000828254610da39190611d9f565b9250508190555050565b600073ffffffffffffffffffffffffffffffffffffffff168273ffffffffffffffffffffffffffffffffffffffff1603610e1c576040517f08c379a0000000000000000000000000000000000000000000000000000000008152600401610e1390611e1f565b60405180910390fd5b610e2581610cf9565b15610e65576040517f08c379a0000000000000000000000000000000000000000000000000000000008152600401610e5c90611e8b565b60405180910390fd5b816003600083815260200190815260200160002060006101000a81548173ffffffffffffffffffffffffffffffffffffffff021916908373ffffffffffffffffffffffffffffffffffffffff160217905550610efe600460008473ffffffffffffffffffffffffffffffffffffffff1673ffffffffffffffffffffffffffffffffffffffff168152602001908152602001600020610d8e565b808273ffffffffffffffffffffffffffffffffffffffff16600073ffffffffffffffffffffffffffffffffffffffff167fddf252ad1be2c89b69c2b068fc378daa952ba7f163c4a11628f55a4df523b3ef60405160405180910390a45050565b600860008373ffffffffffffffffffffffffffffffffffffffff1673ffffffffffffffffffffffffffffffffffffffff168152602001908152602001600020805490506009600083815260200190815260200160002081905550600860008373ffffffffffffffffffffffffffffffffffffffff1673ffffffffffffffffffffffffffffffffffffffff1681526020019081526020016000208190806001815401808255809150506001900390600052602060002001600090919091909150555050565b6006805490506007600083815260200190815260200160002081905550600681908060018154018082558091505060019003906000526020600020016000909190919091505550565b6000828211156110b0576040517f08c379a00000000000000000000000000000000000000000000000000000000081526004016110a790611ef7565b60405180910390fd5b600082846110be9190611bdb565b90508091505092915050565b6000604051905090565b600080fd5b600080fd5b60007fffffffff0000000000000000000000000000000000000000000000000000000082169050919050565b611113816110de565b811461111e57600080fd5b50565b6000813590506111308161110a565b92915050565b60006020828403121561114c5761114b6110d4565b5b600061115a84828501611121565b91505092915050565b60008115159050919050565b61117881611163565b82525050565b6000602082019050611193600083018461116f565b92915050565b600081519050919050565b600082825260208201905092915050565b60005b838110156111d35780820151818401526020810190506111b8565b60008484015250505050565b6000601f19601f8301169050919050565b60006111fb82611199565b61120581856111a4565b93506112158185602086016111b5565b61121e816111df565b840191505092915050565b6000602082019050818103600083015261124381846111f0565b905092915050565b600073ffffffffffffffffffffffffffffffffffffffff82169050919050565b60006112768261124b565b9050919050565b6112868161126b565b811461129157600080fd5b50565b6000813590506112a38161127d565b92915050565b6000819050919050565b6112bc816112a9565b81146112c757600080fd5b50565b6000813590506112d9816112b3565b92915050565b600080604083850312156112f6576112f56110d4565b5b600061130485828601611294565b9250506020611315858286016112ca565b9150509250929050565b611328816112a9565b82525050565b6000602082019050611343600083018461131f565b92915050565b600080600060608486031215611362576113616110d4565b5b600061137086828701611294565b935050602061138186828701611294565b9250506040611392868287016112ca565b9150509250925092565b6000602082840312156113b2576113b16110d4565b5b60006113c0848285016112ca565b91505092915050565b6113d28161126b565b82525050565b60006020820190506113ed60008301846113c9565b92915050565b600060208284031215611409576114086110d4565b5b600061141784828501611294565b91505092915050565b600080fd5b600080fd5b7f4e487b7100000000000000000000000000000000000000000000000000000000600052604160045260246000fd5b611462826111df565b810181811067ffffffffffffffff821117156114815761148061142a565b5b80604052505050565b60006114946110ca565b90506114a08282611459565b919050565b600067ffffffffffffffff8211156114c0576114bf61142a565b5b6114c9826111df565b9050602081019050919050565b82818337600083830152505050565b60006114f86114f3846114a5565b61148a565b90508281526020810184848401111561151457611513611425565b5b61151f8482856114d6565b509392505050565b600082601f83011261153c5761153b611420565b5b813561154c8482602086016114e5565b91505092915050565b60006020828403121561156b5761156a6110d4565b5b600082013567ffffffffffffffff811115611589576115886110d9565b5b61159584828501611527565b91505092915050565b7f4e487b7100000000000000000000000000000000000000000000000000000000600052602260045260246000fd5b600060028204905060018216806115e557607f821691505b6020821081036115f8576115f761159e565b5b50919050565b7f4572726f72202d20617070726f76616c20746f2063757272656e74206f776e6560008201527f7200000000000000000000000000000000000000000000000000000000000000602082015250565b600061165a6021836111a4565b9150611665826115fe565b604082019050919050565b600060208201905081810360008301526116898161164d565b9050919050565b7f43757272656e742063616c6c6572206d757374206265206f776e657200000000600082015250565b60006116c6601c836111a4565b91506116d182611690565b602082019050919050565b600060208201905081810360008301526116f5816116b9565b9050919050565b7f4f776e657220696e646578206f7574206f6620626f756e647300000000000000600082015250565b60006117326019836111a4565b915061173d826116fc565b602082019050919050565b6000602082019050818103600083015261176181611725565b9050919050565b7f4e487b7100000000000000000000000000000000000000000000000000000000600052603260045260246000fd5b7f476c6f62616c20696e646578206f7574206f6620626f756e6473000000000000600082015250565b60006117cd601a836111a4565b91506117d882611797565b602082019050919050565b600060208201905081810360008301526117fc816117c0565b9050919050565b7f41646472657373206973207a65726f0000000000000000000000000000000000600082015250565b6000611839600f836111a4565b915061184482611803565b602082019050919050565b600060208201905081810360008301526118688161182c565b9050919050565b600081905092915050565b600061188582611199565b61188f818561186f565b935061189f8185602086016111b5565b80840191505092915050565b60006118b7828461187a565b915081905092915050565b7f4572726f72202d20746f6b656e20616c72656164792065786973747300000000600082015250565b60006118f8601c836111a4565b9150611903826118c2565b602082019050919050565b60006020820190508181036000830152611927816118eb565b9050919050565b60008190508160005260206000209050919050565b60006020601f8301049050919050565b600082821b905092915050565b6000600883026119907fffffffffffffffffffffffffffffffffffffffffffffffffffffffffffffffff82611953565b61199a8683611953565b95508019841693508086168417925050509392505050565b6000819050919050565b60006119d76119d26119cd846112a9565b6119b2565b6112a9565b9050919050565b6000819050919050565b6119f1836119bc565b611a056119fd826119de565b848454611960565b825550505050565b600090565b611a1a611a0d565b611a258184846119e8565b505050565b5b81811015611a4957611a3e600082611a12565b600181019050611a2b565b5050565b601f821115611a8e57611a5f8161192e565b611a6884611943565b81016020851015611a77578190505b611a8b611a8385611943565b830182611a2a565b50505b505050565b600082821c905092915050565b6000611ab160001984600802611a93565b1980831691505092915050565b6000611aca8383611aa0565b9150826002028217905092915050565b611ae382611199565b67ffffffffffffffff811115611afc57611afb61142a565b5b611b0682546115cd565b611b11828285611a4d565b600060209050601f831160018114611b445760008415611b32578287015190505b611b3c8582611abe565b865550611ba4565b601f198416611b528661192e565b60005b82811015611b7a57848901518255600182019150602085019450602081019050611b55565b86831015611b975784890151611b93601f891682611aa0565b8355505b6001600288020188555050505b505050505050565b7f4e487b7100000000000000000000000000000000000000000000000000000000600052601160045260246000fd5b6000611be6826112a9565b9150611bf1836112a9565b9250828203905081811115611c0957611c08611bac565b5b92915050565b7f746f6b656e20646f6573206e6f74206578697374000000000000000000000000600082015250565b6000611c456014836111a4565b9150611c5082611c0f565b602082019050919050565b60006020820190508181036000830152611c7481611c38565b9050919050565b7f4572726f72202d20455243373231205472616e7366657220746f20746865207a60008201527f65726f2061646472657373000000000000000000000000000000000000000000602082015250565b6000611cd7602b836111a4565b9150611ce282611c7b565b604082019050919050565b60006020820190508181036000830152611d0681611cca565b9050919050565b7f547279696e6720746f207472616e73666572206120746f6b656e20746865206160008201527f64647265737320646f6573206e6f74206f776e21000000000000000000000000602082015250565b6000611d696034836111a4565b9150611d7482611d0d565b604082019050919050565b60006020820190508181036000830152611d9881611d5c565b9050919050565b6000611daa826112a9565b9150611db5836112a9565b9250828201905080821115611dcd57611dcc611bac565b5b92915050565b7f455243373231206d696e74696e6720746f207a65726f20616464726573730000600082015250565b6000611e09601e836111a4565b9150611e1482611dd3565b602082019050919050565b60006020820190508181036000830152611e3881611dfc565b9050919050565b7f45524337323120616c7265616479206578697374730000000000000000000000600082015250565b6000611e756015836111a4565b9150611e8082611e3f565b602082019050919050565b60006020820190508181036000830152611ea481611e68565b9050919050565b7f536166656d6174683a207375627472616374696f6e206f766572666c6f770000600082015250565b6000611ee1601e836111a4565b9150611eec82611eab565b602082019050919050565b60006020820190508181036000830152611f1081611ed4565b905091905056fea2646970667358221220adaa791b9ed33212f84c40c77b90042725c93402c4b7e5e369b41e279b30393b64736f6c63430008110033",
  "immutableReferences": {},
  "source": "// SPDX-License-Identifier: MIT\r\npragma solidity >=0.4.22 <0.9.0;\r\n\r\nimport './ERC721Connector.sol';\r\n\r\ncontract Token is ERC721Connector {\r\n\r\n  // matriz para guardar nuestros nfts\r\n    string[] public TokenNFTS;\r\n\r\n    mapping(string => bool) _TokenNFTExists;\r\n\r\n    function mint(string memory _Token) public {\r\n\r\n        require(!_TokenNFTExists[_Token], 'Error - token already exists');\r\n\r\n        TokenNFTS.push(_Token);\r\n        uint _id = TokenNFTS.length -1;\r\n\r\n        _mint(msg.sender, _id);\r\n\r\n        _TokenNFTExists[_Token] = true;\r\n    }\r\n    /*Funcion mint: le paso el token que voy a  mintear\r\n    luego verifico que ese Token no exista, luego hago un push\r\n    al array 'TokenNFTS' con esew token, luego le doy valor al _id,\r\n    despues utilizo la funcion _mint de ERC721.sol pasandole como paramentro\r\n     el address y el _id del token que viene de la pocision del array,\r\n     despues vamos a decirle que ese _token ya fue creado indicandole\r\n      que es true. */\r\n\r\n    constructor() ERC721Connector('Pilicoin', 'KT') {\r\n       \r\n    }\r\n\r\n\r\n}\r\n\r\n /*creamos el Token en el en token.sol luego pasamos esa informacion a\r\n   Erc721Connector.sol para 'conectar' esa informacion con ERC721Metadata.sol y asi \r\n   tranformar el 'token'(contrato) en un PROTOCOLO Erc721 o token ERC721*/",
  "sourcePath": "C:\\Users\\julia\\Solidity\\Market_Place_NFTs\\market-place-nfts-react\\src\\contracts\\Token.sol",
  "compiler": {
    "name": "solc",
    "version": "0.8.17+commit.8df45f5f.Emscripten.clang"
  },
  "schemaVersion": "3.4.10",
  "updatedAt": "2022-11-15T13:02:01.374Z",
  "networkType": "ethereum",
  "devdoc": {
    "kind": "dev",
    "methods": {},
    "version": 1
  },
  "userdoc": {
    "kind": "user",
    "methods": {},
    "version": 1
  }
}